:020000040000FA
:0600000002011A020F19B3
:03002B000213D9E4
:030033000213BBFA
:03005300020F8F0A
:03006B00021392EB
:10008300020E1FE5C754F84401F5C77901220000A9
:100093000080FB120086B90003020104E4791B7897
:1000A30002B800028004F709D8FCE4791D7802B88D
:1000B30000028004F709D8FCE490028178E8790A09
:1000C3008002F0A3D8FCD9FA781A90014A7A01BACF
:1000D30000028007E493A3F608DAF97A687B0C90B0
:1000E300014B78D579018015E493A3AD82AE838A61
:1000F300828B83F0A3AA82AB838D828E83D8E9D9C6
:10010300E77582F9758365740012012C7582917508
:100113008300740012012C75D00075813F7518811E
:10012300751902759F00020096C09FF59FE473D076
:100133009F22D083D082C09FE493C0E0740193C018
:10014300E0740293F59F220101307503020104005C
:10015300000000000000000000000000000000009C
:100163000000000000000000000000FF0000B400D9
:100173000028002800283075A000A000A000A000DF
:1001830000080008E001F00010001000100010004B
:100193001000100050005000500010001000D00755
:1001A3000000000000000F0001000500307507008B
:1001B3001000010081FF00000000FF9702B5029DBF
:1001C30002FFF903F903F903F903F903F903F90347
:1001D300F903F903F903F903F903F903FFFFFF0037
:1001E300150953696D706C65424C4542726F6164C9
:1001F300636173746572020A000201061BFF000D3E
:10020300BEAC412E492E532E532E544553544245D2
:1002130041434F4E303100435F070000120135E781
:100223003200120135A534001201357E350012016A
:1002330035C73500120135FA3500120135EF3600A6
:10024300120135554C001201357D4C00120135AABF
:100253004C00120135E84C00120135324D001201F9
:1002630035884D00120135C24D00120135574E003D
:100273001201358D6300120135A463001201352A82
:100283001B00120135061C00120135B01C001201BF
:1002930035F11C00120135781D00120135F31D00E4
:1002A300120135C61E00120135EF1E00120135E39F
:1002B3001F00120135202000120135082100120110
:1002C300353921001201355F21001201351E53001B
:1002D3001201352953001201353B53001201351326
:1002E300540012013518540012013508550012014B
:1002F30035F356001201351757001201356B5700BD
:10030300120135805700120135955700120135FA55
:1003130057001201353D580012013567580012018C
:10032300358C5800120135034700120135E04700B0
:10033300120135586000120135A9600012013557CA
:1003430066001201350414001201358F15001201E5
:10035300356B16001201352117001201358F170076
:100363001201350419001201353F1900120135B588
:100373001A00120135E54E00120135A94F00120192
:1003830035FD5000120135922700120135DB27009D
:100393001201350828001201353A280012013547A9
:1003A3002800120135532800120135652800120177
:1003B30035192900120135772900120135AC2900BE
:1003C300120135E82A001201353B2B00120135A03A
:1003D3002B00120135FF2B00120135042D001201F1
:1003E300352E2D00120135455D00120135515D009A
:1003F300120135215E00120135C467001201354335
:100403002D00120135722D00120135662E001201E6
:1004130035BE2F00120135003100120135F83100CD
:100423001201354632001201356032001201359552
:100433003200120135DE3200120135C240001201D2
:10044300353841001201354E4100120135CB4100D0
:100453001201350242001201353C42001201357689
:100463004200120135E94200120135244300120112
:10047300352D43001201353943001201355F430026
:100483001201357443001201359D4300120135FFFB
:100493004300120135264400120135554400120170
:1004A30035684400120135824400120135AF44001F
:1004B300120135F544001201352845001201358E2D
:1004C3004500120135A34500120135AE4500120166
:1004D30035BB4500120135D24500120135E0450018
:1004E300120135EB4500120135FE45001201351EA0
:1004F30046001201352E4600120135444600120112
:10050300356246001201356D460012013582460000
:10051300120135964600120135D36400120135FFEE
:1005230064001201355865001201355E670012013F
:10053300352B62001201353C6200120135E9660079
:10054300120135286700120135B167001201354EDB
:1005530061001201355E6100120135736100120101
:1005630035256200120135605E00120135E35E003D
:10057300120135495F00120135795A00120135A283
:100583005A00120135085B00120135275B00120186
:10059300357A5B00120135D35B001201350E5C0026
:1005A300120135115C00120135B04900120135C545
:1005B3004900120135CA4A001201353E4B001201AF
:1005C30035584B001201356F4B001201357D4B003E
:1005D300120135954B00120135AA4B00120135CF9C
:1005E3004B00120135204C001201359B67001201AC
:1005F30035AB6700120135AE6700120135F87F0095
:10060300120135115500120135875600120135E8E4
:100613005600120135DF6200120135026300120138
:1006230035446300120135783C00120135823C00E9
:10063300120135CE3C00120135EB3C00120135307E
:100643003D00120135593D001201356E3D00120186
:1006530035DE3D001201356B3E00120135BF3E0011
:10066300120135E23E00120135613F001201359C53
:100673003F00120135D13F00120135E33F00120163
:10068300350240001201350B40001201356A650046
:100693001201351B5C00120135435C001201356207
:1006A3005F00120135225100120135585100120129
:1006B300358B5100120135E45200120135346400C8
:1006C3001201354A6400120135546400120135A841
:1006D30064001201359E6600120135CF210012011C
:1006E30035892200120135CB22001201353B23004C
:1006F300120135912300120135E52300120135D291
:100703002400120135532600120135072700120178
:10071300357027001201351638001201352C3800C8
:10072300120135CD38001201350C3900120135297B
:1007330039001201355A3900120135A73900120167
:1007430035DA3900120135153A00120135103C0033
:10075300120135B45800120135615900120135A157
:1007630059001201353267001201357D6700E066DA
:10077300701008A3E066700A08A3E066700408A37B
:10078300E06622C3E7960809E7960809E796080991
:10079300E79622C3E09608A3E09608A3E09608A391
:1007A300E09622C008C3E096F50808A3E096420845
:1007B30008A3E096420808A3E09645087001D3D049
:1007C3000822080808EAC0E0EBC0E086F0E7A4FAD4
:1007D300180986F0E7A42AFA180986F0E7A42AFA8A
:1007E300180986F0E7A42AFA1986F0E7A4FBE5F0D6
:1007F3002AFA190886F0E7A42BFBE5F03AFA190860
:1008030086F0E7A42BFBE5F03AFA18180986F0E71F
:10081300A4C5F02BFBE43AFA1908E7C5F0C6A426F1
:10082300F6E5F03BFBE43AFA1886F0E7A4F6E5F0C8
:100833000826F6E43B08F6E43A08F6D0E0FBD0E0FD
:10084300FA22E4CFC0E0E4CEC0E0E4CDC0E0E4CCE3
:10085300C0E075F020E626F608E633F608E633F640
:1008630008E633F6181818EC33FCED33FDEE33FECF
:10087300EF33FFC3EC9709ED9709EE9709EF97194B
:100883001919400FFFEC97FC09ED97FD09EE97FE50
:10089300191906D5F0BFECF709EDF709EEF709EFE3
:1008A300F7191919D0E0FCD0E0FDD0E0FED0E0FF4D
:1008B300226016080808C6C313C618C613C618C68E
:1008C30013C618C613C6D5E0EA2270090808082221
:1008D3006016181818C6C333C608C633C608C6330D
:1008E300C608C633C6D5E0EA22E627F60809E63786
:1008F300F60809E637F60809E637F622E026F60891
:10090300A3E036F608A3E036F608A3E036F622E0C5
:1009130026F008A3E036F008A3E036F008A3E0369B
:10092300F022C3E697F60809E697F60809E697F674
:100933000809E697F622C3E096F008A3E096F008CC
:10094300A3E096F008A3E096F022E056F608A3E0B1
:1009530056F608A3E056F608A3E056F622E0F6089A
:10096300A3E0F608A3E0F608A3E0F622E6F008A366
:10097300E6F008A3E6F008A3E6F022E0FAA3E0FB22
:10098300A3E0FCA3E0FD22E0F8A3E0F9A3E0FAA3CF
:10099300E0FB22E8F0A3E9F0A3EAF0A3EBF022CA1C
:1009A300C0E0E6F0A308DAFAD0E0FA22CAC0E0E039
:1009B300A3C582CCC582C583CDC583F0A3C582CC34
:1009C300C582C583CDC583DAE6D0E0CA22B900105B
:1009D300BB0008E88AF084F8AAF022E4FBC8FA22F4
:1009E300EB70227B10C833C8C933C9335007C39A8D
:1009F300C3DBF280069A50012ADBEAC833F4C8C984
:100A030033F4C9FA2275F008E4C833C8C933C933CB
:100A1300C99AC99B5004C92AC93BD5F0ECFBC8331A
:100A2300F4C8E4C9FA22600D08C6A2E713C618C6C3
:100A330013C6D5E0F322600C08C6C313C618C61349
:100A4300C6D5E0F422700422600D18C6C333C6086D
:100A5300C633C6D5E0F41822251810AF08F51840A0
:100A63000C15198008F51840021519D2AF2200C0E1
:100A7300D0251810AF08F518500C05198008F51883
:100A830050020519D2AFD0D0222518F58210AF0835
:100A9300F518400C15198008F51840021519D2AF46
:100AA300851983222518F582E43519F58322251843
:100AB300FAE43519FB222518FCE43519FD22E47309
:100AC3002518C582C0E0E51934FFC583C0E0E518E9
:100AD300C3958224F810AF0885831985821880088E
:100AE300858319858218D2AFCEF0A3E520F0A378D1
:100AF30008E608F0A3DEFAEFF0A3E58124FAF8E6AE
:100B030008F0A3E608F0A3E608F0A30808E608F057
:100B1300A3E608F0A315811581D0E0FED0E0F81517
:100B23008115811581E8C0E0EEC0E0222518C58259
:100B3300C0E0E51934FFC583C0E0E518C3958224FE
:100B4300F910AF0885831985821880088583198574
:100B53008218D2AFCEF0A3E520F0A37808E608F020
:100B6300A3DEFAEFF0A3E58124FBF8E608F0A3E6A1
:100B730008F0A30808E608F0A3E608F0A31581151A
:100B830081D0E0FED0E0F815811581E8C0E0EEC029
:100B9300E022851983851882E0A3FEE0A3F520787F
:100BA30008E0A3F608DFFAE0A3FFE0A3C0E0E0A3B8
:100BB300C0E0E0A3C0E0E0A3C0E0E0A3C0E010AF6A
:100BC300088582188583198008858218858319D240
:100BD300AFD083D082020132851983851882E0A3C6
:100BE300FEE0A3F5207808E0A3F608DFFAE0A3FF10
:100BF300E0A3C0E0E0A3C0E0E0A3C0E0E0A3C0E066
:100C030010AF08858218858319800885821885832B
:100C130019D2AFD083D08222C0D02518C582C0E0BC
:100C2300E51934FFC583C0E0E518C3958224F310AA
:100C3300AF088583198582188008858319858218F2
:100C4300D2AFC8F0A3E9F0A3EAF0A3EBF0A37908CD
:100C5300E709F0A3D8FAECF0A3EDF0A3EEF0A3EFCD
:100C6300F0A3D0E0F0A3D0E0F0A3D0E0F0A3E52020
:100C7300F0A3E5F0F0A322851983851882E0C0E094
:100C8300A3E0F9A3E0FAA3E0FBA37808E0F608A346
:100C9300DFFAE0FCA3E0FDA3E0FEA3E0FFA3E0C0D6
:100CA300E0A3E0C0E0A3E0F5D0A3E0F520A3E0A338
:100CB300F5F010AF0885831985821880088583199C
:100CC300858218D2AFD082D083D0E0F8D0E03274DE
:100CD300048006740280027401C0E0F404120A8CDA
:100CE300D0E01209A2227404800474028000CCC0F4
:100CF300E0EDC0E0E518C39CCCAD1950011D10AF69
:100D0300068C188D1980068C188D19D2AF1209AF75
:100D1300D0E0FDD0E0FC22D083D082E9C0E0E493B0
:100D2300A3C386F0C5F095F0F908E493A386F0C554
:100D3300F095F0700BE493A3C3994005E904800296
:100D4300A3E475F002A42582F582E5F03583F583EB
:100D5300D0E0F9E493A3C0E0E493C0E022D083D0D1
:100D630082ECC0E0EDC0E0E493A3FCE493A3FDEDCB
:100D73004C600D120DACEC24FFFCED34FFFD80EF55
:100D8300E493A3FCE493A3FDED4C600D120DEBEC97
:100D930024FFFCED34FFFD80EFD0E0FDD0E0FCE468
:100DA30093A3C0E0E493C0E022C0E0C3E4939608B9
:100DB3007401939618400FE49366700808740193C6
:100DC300661870007019A3A3C3E493960874019383
:100DD3009618A3A3400DD0E0D0E0D0E0020D9CA371
:100DE300A3A3A3A3A3D0E022C0E0C0F088F0E493C0
:100DF3006670080874019366187000A8F0A3A370C6
:100E03000BD0F0D0E0D0E0D0E0020D9CA3A3D0F053
:030E1300D0E0220A
:100E1800851B87851CC622C0E074F1120C1BA2AF8B
:100E2800E433FEC2AF759B00906182E0A2E05009F6
:100E3800E591A2E050037591FEE0A2E55009E59125
:100E4800A2E550037591DFE0A2E64003020EEFE54C
:100E580091A2E64003020EEF7591BF900303E06490
:100E680005700812046B1204778003120471751B55
:100E7800001204DDE9900304F079001204D1120392
:100E8800AB7A017B00900302E0F9120669907803BF
:100E9800E06442705290037EE014F0704AC2AF12D0
:100EA8000EAA00781ED0E0F618D0E0F6E59F5407A9
:100EB80070047BFF80027B7FC4C0E0781DE6F508E4
:100EC80008E65BF509740B7808120A39D0E02508A2
:100ED800F8906270E0A2E740F8E8C333906272F0DD
:100EE800906270E0D2E0F0906181E0A2E35009E501
:100EF800E9A2E3500375E9F7A3E0A2E75009E591F9
:100F0800A2E7500375917FEEA2E092AF7F02020C38
:100F18007AC0E0C0D0C082C083906183E0A2E05074
:100F280009E5BFA2E0500375BFFEE0A2E15009E564
:100F3800BFA2E1500375BFFDE0A2E25009E5BFA2E0
:100F4800E2500375BFFBE0A2E35009E5BFA2E350FE
:100F58000375BFF7E0A2E45009E5BFA2E4500375AA
:100F6800BFEFE0A2E55009E5BFA2E5500375BFDF7A
:100F7800E0A2E65009E5BFA2E6500375BFBFD083E3
:100F8800D082D0D0D0E032C0E074F2120C1BE5A7BA
:100F9800A2E4500FE5A1A2E4500953A7EF75A1EF11
:100FA800120FE3E5A7A2E5500CE5A1A2E550065310
:100FB800A7DF75A1DFE5A7A2E15009E5A1A2E150ED
:100FC8000375A1FDE5A7A2E2500CE5A1A2E2500637
:100FD80053A7FB75A1FB7F01020C7A74F8120B2F43
:100FE800751B01900303E0640670077A007B00120A
:100FF8000453A2AFE433FED2AF900309E06401705A
:10100800187A207B00900302E0F912073B7A207BD4
:1010180000900302E0F912066F906182E0D2E6F0D8
:1010280090037BE0602185C61C8016900308E0646D
:10103800017008E5C654F84405F5C653BEFC120E07
:10104800187401651B60E4EEA2E092AF7F01020B09
:10105800DB74E9120B2F74FA120A5BEAFEEBFF8CC1
:10106800088D0912048FEAF8EBF9ECFAEDFB8E8291
:101078008F83120996900303E024F7C39405500662
:1010880075100102118F1204238A0A8B0BEA4B7028
:101098000302118C1204838A0C8B0D120483EA65F7
:1010A8000C7003EB650D60ECEEFCEFFDAA18AB19B4
:1010B800120489850A82850B83A3A3780C12096020
:1010C800908E91780C12094D8518828519837814B1
:1010D800120960908E91781412094D780C791412C7
:1010E8000786501F780C7914120925908E79780C90
:1010F8001207A6405D850C10850D11850E12850F0F
:10110800138037908E7985141085151185161285F0
:1011180017137810790C12092578101207A6503287
:101128007510007511007512007513017810791487
:101138001209257810790C1208EC74097810120835
:10114800CD908E8D780C1209607810790C120845B4
:10115800800C75101475110075120075130090033A
:1011680003E06408600AE064066005E06405702036
:10117800908E7D78101207A65016908E81781012E6
:1011880008FF800C751000751100751200751300AA
:10119800850882850983781012096F7406120A710E
:1011A8007F10020BDB74F7120B2F1204A190037946
:1011B800E064017010906245E4F0A3F053F4F34347
:1011C800FE0C5390F3120441E5C654B84441F5C6E9
:1011D800E59E5447644170F8906185740FF0900360
:1011E80077E0F47002A3E0602C750801750900909F
:1011F8000377E07808120A48E508F4FAA3E06008E3
:1012080014600A14600C800DEA52808008EA52903B
:101218008003EA52A079007F02020BDB74F7120BFD
:101228002FE9FEEAFF74016E700C7A807B00900350
:1012380002E0F91206699013FCE493F46008E49361
:10124800F912038D800953C6B8E59E544770FA1207
:101258000447900379E0640170031203C390037795
:10126800E0F47002A3E0602B750801750900900393
:1012780077E07808120A48E508FAA3E060081460E5
:101288000A14600C800DEA42808008EA42908003CC
:10129800EA42A01204238B09A909EA496016E5E18C
:1012A80070FCEA2414F582E439F583E0F874FF68E9
:1012B800600288E174016F700A7A01900302E0F914
:1012C8001206C902121F74F1120B2F8A088B098C9F
:1012D8000A8D0B908E91780812094D740F120AA787
:1012E800780C120960908E91780C12094D78087963
:1012F8000C120786908E7950107808790C120925FF
:1013080078081207A64014800E780C79081209256F
:10131800780C1207A650047901800279007F080230
:101328000BDB74ED120B2F8A088B098C0A8D0B903E
:101338008E91780812094D7413120AA7780C1209B5
:1013480060908E91780C12094D780C7908120786F6
:1013580040117808790C120925AA08AB09AC0AAD26
:101368000B80227510007511007512007513017835
:1013780010790C120925781079081208ECAA10AB1C
:1013880011AC12AD137F0C020BDBC0E074F2120C2F
:101398001BA2AFE433FED2AFE589A2E150031205E8
:1013A80097758900C2C5751A00EEA2E092AF7F0159
:1013B800020C7AC0E074F2120C1BA2AFE433FED226
:1013C800AFE58BA2E05003120597758B00C2E88049
:1013D800D5C0E0C0D0E8C0E0A8A8D2AFC2C7751A8F
:1013E80000E8A2E792AFD0E0F8D0D0D0E032C2AFA8
:1013F80002000022FFFFFFFFFFFFFFFF74F6120A43
:10140800C3E9900302F012049B907800E0C4540FE3
:10141800540764037004793F8002797F7508067564
:1014280009007808120CD67CF07D027AEA7B071254
:1014380005677402120A719002F0E0F47049A3E0A3
:10144800F47044A3E0F4703FA3E0F4703AA3E0F42E
:101458007035A3E0F4703090780EE09002F0F090D0
:10146800780FE09002F1F0907810E09002F2F0909E
:101478007811E09002F3F0907812E09002F4F09086
:101488007813E09002F5F09002F6121586121AF918
:101498009003147409F0A3740D1217807450F0A30C
:1014A8007401F090031E12158690031DE4F090035A
:1014B8002BF0A374A01217807403F0A374071217FB
:1014C80080742812178004F0A3E4F0900354F0907D
:1014D800037774FFF0A3E4F0900379F090037B04A2
:1014E800F090037C7490F0A37401F01203BD120312
:1014F8005112043B79017A7E7B031203ED90037E3F
:10150800E075F01484E5F004F01203F3121660900D
:101518007803E06442705290037EE014F0704AC28F
:10152800AF12152C00781ED0E0F618D0E0F6E59F33
:10153800540770047BFF80027B7FC4C0E0781DE6FF
:10154800F50808E65BF509740B7808120A39D0E04B
:101558002508F8906270E0A2E740F8E8C33390628B
:1015680072F0906270E0D2E0F0900319E4F0A3F01A
:101578007A80FB900302E0F912066902176E74FF85
:10158800121786F0A3F02274F4120AC3EAFEEBFFE6
:10159800EAA2E05038900304E0C39480E0500F259D
:1015A800E0F8E433F974E228F582740C800EF4252F
:1015B800E0F8E433F974F028F582740C39F58312F5
:1015C8001AAC120AC1121660EE6401803B548060A6
:1015D8003B90037C12177AE849602A79001206C307
:1015E80090037CE0F508A3E0F509E4F50AF50B782B
:1015F80008120CD27A007B01900302E0F912072F3F
:101608007404120A71EE6480FAEF802DEB540160C5
:101618000C79011206C3EEFAEF6401801CEB540248
:10162800600AC2AF75C9AB75C95B80FEEB54046034
:101638000B1213F6EEFAEF6404FB8017900309E02F
:101648006401700BEA54206006EA6420FA80047A88
:10165800007B007F04020B957A00900302E0F912E8
:1016680006C922C082C083C2AF1204717A01121760
:1016780016E5E170FC75E10112039375E1F11204BE
:10168800B312038779071205017901120507790258
:101698001204D71204E91204F579001204FB790147
:1016A8001204FB908EBD12097E1204BF90032BE436
:1016B800F0A3F0A3F090032F7407F090032E7403A7
:1016C800F0900334E4F0900333F0900354F01203E5
:1016D800FF1203E1790012050D906012E4F0A37483
:1016E800FFF0906063E4F0751B00900303F0900333
:1016F80005F0A3F0900308F090030904F090031399
:101708007403F090037AE4F0D2AFF90217677B0014
:10171800900302E0F912066F22C082C0839002F0A3
:101728001217739002F1121753F09002F212175326
:10173800A3F09002F3121753A3A3F09002F4121728
:101748005AF09002F512175AA38011E08A828B830F
:10175800A322E08A828B83A3A3A3A322F07900D0DB
:1017680083D0820201327F02020B95E08A828B834A
:10177800F022E0F8A3E0F922F0A3E4F0A322F0A31A
:10178800F0A3F0A3F0A32274F7120AC3EAFEEBFF5A
:101798008908E960407401696012740369603674ED
:1017A800026960317404696003021848740B120AF4
:1017B800A712177AE8497003021848740A120AA790
:1017C800E0F8600574016870777403650860067452
:1017D8000265087014EA24E0F8EB1218F45061EC82
:1017E80024E0F8ED1218F45057C3EC9EED9F4050DA
:1017F8007409120AA7E0FA600574016A7042740E4F
:10180800120AA7E0F9600F740169600A740269603E
:1018180005740369702A740D120AA7E0F874075852
:10182800F8601D90032BE064017005790C0218F232
:10183800E508600C740165086006740465087005A5
:1018480079120218F2E890032FF0E50890032EF0C1
:10185800E9900330F0EA90031D702FE4F09002F055
:10186800E090031EF09002F1E090031FF09002F266
:10187800E0900320F09002F3E0900321F09002F44E
:10188800E0900322F09002F5802E7401F09002F6A9
:10189800E090031EF09002F7E090031FF09002F82A
:1018A800E0900320F09002F9E0900321F09002FA12
:1018B800E0900322F09002FBE0900323F0E970042B
:1018C80079008019740169700479018010740269C3
:1018D800700479028007740369700579031204EFB4
:1018E80090032CEEF0A3EFF07900800B34FFF9C3DE
:1018F800E894E1E9943F227F01020B9574F6120AFD
:10190800C3E9C39420500BE9900334F0601EEA4BFE
:1019180070047912801E121AF0120CD6EAFCEBFD44
:101928007A357B0312062D7402120A719003337400
:1019380001F0790002176E74F4120AC3E9FF9003EC
:1019480003E064097003021A4DE0640A7003021A86
:101958004DE0640B7003021A4DE0640C7003021A28
:101968004DE0640D7003021A4D90032EE0F96017E4
:101978007401696012740369600D74026960087407
:1019880004696003021A9B90031DE0F86008740163
:10199800686003021A9B7403696005740269701019
:1019A80090032CC3E09420A3E094005003021A9BF8
:1019B800E97003021A9B7401697003021A9B74048C
:1019C800697003021A9BEF6076146003021A9B90F9
:1019D800032BE06401606E790112041790031BEA7F
:1019E800F0A3EBF090032B7401F0900303E0704A2E
:1019F80012047D8A088B098C0A8D0B908EAD7808AD
:101A08001208FF908E91780812094D90031B121A44
:101A1800ACA3A3780812096F90031BE0F8A3E0C8F1
:101A28002406F582E438F583E4F0A3F01203C9E94B
:101A38006005121A9F800E120405790002165B9049
:101A4800032BE07004792180F3A2AFE433FEC2AF28
:101A5800121A9F120435E97033120471906182E002
:101A6800C2E6F0E5E170FC75E1017591BF75E1F141
:101A7800900309E0640170117A207B00900302E072
:101A8800F912073B7A20121716121660EEA2E0929E
:101A9800AF80A7791280A57A1B7B0312041D9003DF
:101AA8002BE4F022E0F8A3E0F58388822274F61292
:101AB8000AC3E9C39420500BE9900354F0601EEA6E
:101AC8004B70047912801E121AF0120CD6EAFCEB45
:101AD800FD7A557B0312062D7402120A71900333A6
:101AE8007401F0790002176EE0F5087509007808AE
:101AF800229002F0E09002FCF09002F1E09002FDEA
:101B0800F09002F2E09002FEF09002F3E09002FF03
:101B1800F09002F4E0900300F09002F5E0900301E9
:101B2800F02274F4120AC38908EAFEEBFF1221C5F9
:101B380060057911021C039002B6E05405603090EC
:101B480002D31221C860051221BC70057910021C4D
:101B5800039002B6E0A2E040061202DFE960158EAB
:101B6800828F83E0F8740368600A740268600579FC
:101B780012021C037A0C7B001206B19002D1EAF023
:101B8800A3EBF0F9EA49606FE0F5838A82E5081271
:101B98001FD5E4F0750A0AF50B780A120CD6EEFC8C
:101BA800EFFD9002D1E02402FAA3E03400FB120614
:101BB8002D7402120A7112029DE9FE60051202C11B
:101BC80080379002B7E06403702F7A1D7B00120201
:101BD800499002B8EAF0A3EBF0F9EA49601B908E4D
:101BE800CD120CE97A047B009002D9E0F91207358E
:101BF8007404120A7180027E13EEF90220D674EE84
:101C0800120AC3890C8A0A8B0B8C0E8D0F9002B6B0
:101C1800E054057003021CA974016A700D9002D388
:101C28001221C8607C9002D3800B9002D51221C883
:101C3800606F9002D5E0FEA3E0FFEBC3942050074D
:101C4800EB6008EC4D700479028058E50C900CDAD2
:101C5800F08E828F83A38582088583097C1F7D008F
:101C68007900AA08AB09120633E50BF510751100C7
:101C78007810120CD6AC0EAD0FAA08AB0912062DBF
:101C88007402120A718E828F83E50BF0F9E50AAAB5
:101C980008AB0960051202FD8003120303E9F9800D
:101CA8000279127F0A020B9574F7120AC31221C334
:101CB8007004791280291221BC6E60047903801F98
:101CC8001220BE7A04FB9002D9E0F912073B900279
:101CD800B8E4F0A3121FD57403F0790012030902C7
:101CE8001D65D083D08202013274F7120AC39002B4
:101CF800D31221C86003121D6A9002D51221C86050
:101D08000D9002D51221529002D5E4F0A3F0900272
:101D1800B6E05405603E7ADB7B0C1202EB7E009045
:101D280002B6E0540560291220F8F9EA49601F7CE0
:101D3800207D0079001206331220E8F9EA49600B89
:101D48007C207D0079001206338005121D6A7E13FF
:101D5800EEF980097A007B001202EB79007F01021C
:101D68000B959002D31221569002D3E4F0A3F022EF
:101D780074F6120AC37E018A828B83A3A3A3E0FCB4
:101D8800A3E0FD8C08F5097808120D1A062004D581
:101D98001DA31DD51DB51DB51DAB1D121DDC1202E1
:101DA800A38006121DDC1202A9E9FE802274086CC9
:101DB800700374206D70047901800279008A828B27
:101DC80083A3A3A31221B7FA1202AF80027E00EE0A
:101DD800F90220DB8A828B83A3A3A3A3A3121DE9A4
:101DE800221220E3F5838882E0F92274F2120AC3F2
:101DF8001221C57003021EA1121FDCA3E0F50B120D
:101E080002DFE960097A0A121EB47A0B8016120200
:101E1800C7E960097A06121EB47A0780077A0812A1
:101E28001EB47A09121EBC9002B7E07005750A004C
:101E38008003750A019002D1E02404FAA3E034007B
:101E4800FB121FD6A3A3E0F9120261E9F91220E000
:101E5800C8240B121EA8120CDA1220E0C8240A1299
:101E68001EA8120CDA9002D1E02404F50CA3E03489
:101E780000F50D780C120CD6E9F50C780C120CDA7A
:101E8800780A120CDAA90BAC08AD09EEFAEFFB12CE
:101E980002F77406120A71800279017F06020B9517
:101EA800F582E438F583E0F50C780C22121EBCAEFE
:101EB80008AF09227B001202498A088B092274F7AD
:101EC800120AC31221C3601AEE700C121FDC7401CF
:101ED800F0F9120309E9FEEE6004F91202BB790178
:101EE80080027900021D6574F0120AC31221C370C2
:101EF80003021FB4121FDCE064016003021F941286
:101F080002C7E9604B7A01121FCC908EC57808127F
:101F180007A6502B908ECD120CE97A027B00900216
:101F2800D9E0F91207357404120A71E50824C4F8D7
:101F3800E50934FFF99002D7E8F0A3E9F08036907C
:101F48008EC1780C1209607808790C1207C58005D3
:101F58007A00121FCCE5084509450A450B6016783A
:101F680008120CD27A027B009002D9E0F912072FEE
:101F78007404120A71121FD67402F09002BAE0704B
:101F880007EEF91202BB8020E4F0801C9002BAE050
:101F980070167A037B00120639EA4B6008121FBBE1
:101FA800740412212E1202C17901800279007F087F
:101FB800020B958A828B8374D0F0EEA3F08A828B11
:101FC80083A3A322121EBCE4F50AF50B22F09002AB
:101FD800D1E0F8A3E0F5838882A32274F6120AC33D
:101FE800E9FEEAFF900CDAE0F4602A7A047B00123A
:101FF8000639EA4B601F8A828B8374D0F0EF121F78
:10200800C37402F0EE8A828B83A3A3A3F0900CDA48
:10201800E0F91206450220DB74F4120AC3E9FE74E3
:10202800016E707D9002D71221C860069002BAE056
:10203800600E1221C5607D1221BCF912028B8074DA
:102048009002D7C3E0943CA3E09400400D9002D7DF
:10205800E024C4F0A3E034FF80441220C6E0F50871
:10206800A3E0F509E50875F0E8A4C508A8F075F03F
:1020780003A428F875F0E8E509A428F509E4F50AA9
:10208800F50B7808120CD27A027B009002D9E0F99D
:1020980012072F7404120A719002D7E4F0A3F0809B
:1020A800131221C5600E9002B6E0A2E2500612207B
:1020B800BE1202C180181220C6E4F0A3F0227A02F0
:1020C8007B009002D9E0F912073B9002D7227F04E7
:1020D800020B957F02020B959002D1E0F8A3E02253
:1020E8007A207B001206B19002D5EAF0A3EBF02229
:1020F8007A207B001206B19002D3EAF0A3EBF0221B
:1021080074F6120AC31221C360197A037B001206FF
:1021180039EA4B6008121FBB740312212EEE6003CC
:102128001202C10220DBF09002D1121DE91206450D
:1021380022C082C0831221C5600D9002D1122152A3
:102148009002D1E4F0A3F0021CEA12215622E0FA30
:10215800A3E0FB1206B72274F6120AC374FF120A30
:102168005B9002D31221C8603C9002D3E02401F5B1
:1021780008A3E03400F5097808120CD69002D312AF
:1021880021B9FC7402120AB179011202797402129F
:102198000A718A828B83E58245836009E0A2E05058
:1021A800047901800279007401120A710220DBA30C
:1021B800A3E0F8A3E0F5838882E022E9FE9002D14B
:1021C8001220E3F9E8492274F4120AC374FC120AD3
:1021D8005B7E00900C51E4F0900C4EF07F7D75080A
:1021E800047509007808120CD67402120AB97A002C
:1021F8007B00EF12278B120A71908EB578081209AE
:102208006085188285198378081207717019900CF7
:102218004EE0600FF91206EDEFF91206ED900C4E44
:10222800E48001EFF0801885188285198312098AE5
:10223800E8494A4B7004EFFE8005EFF91206ED0FEE
:10224800EFC3947F4098900C4EE07026EE7018799A
:102258007D1206E1900C4F7404F0A3E4F0900C5149
:10226800E0601979008017F01206F3EEF91206FF04
:10227800800AEE6004F91206E71206F379010223D8
:102288008774F7120AC374FC120A5BE9FE85188288
:10229800851983E4F0A3F0A37410F0A3E4F0AC185C
:1022A800AD19FAFB12070B900C51E07005EE900C7B
:1022B8004EF07404120A717F01020B95D083D0820C
:1022C80002013274F4120AC38908900C51E06005C7
:1022D8007401F0805C120573740F5508F50A750BCC
:1022E80000740B780A120A4825E0F87480350BF957
:1022F800AFC7A2AFE433FEC2AFE5081226EB7C00FD
:102308007D08E8FAE98A82F583A3A882A9838A82EC
:10231800F583E0F46008900C517401F0800CEC2413
:10232800FF1CED34FFFDEC4D70D88FC7EEA2E09294
:10233800AF805174F4120AC374FF120A5B89087ED5
:10234800007F00750A01750B00780A120CD674021A
:10235800120AB9EEFAEFFBA90812278C120A718546
:102368001882851983E0F46007A9081206E7800B34
:102378000EEE70010FC3EF940840C8740180027418
:1023880004120A717F04020B9574F4120AC374FCD8
:10239800120A5B7EFC7F077508047509007808122D
:1023A8000CD67402120AB9122783120A71908EB9D8
:1023B80078081209608518828519837808120771D0
:1023C800700AEE24FCFEEF12264850CBEE2404F8E7
:1023D800E43FF9900C4FE8F0A3E9F080A274F412FE
:1023E8000AC374FC120A5B89088C09EA24FCFAEB1C
:1023F80034FFFB740F59F50A750B00740B780A1239
:102408000A4825E07480350BF9E508C4540FF5082F
:102418008008EA24FCFAEB34FFFBC3EA9404EB944B
:102428000050030224C4E42AFCE93BFDAFA8C2AF74
:10243800AEC774F85E4508F5C78C828D83E08518B1
:10244800828519831224CBE0C0E07401120AA7D058
:10245800E01224CBA3E0C0E07402120AA7D0E01275
:1024680024CBA3A3E0C0E07403120AA7D0E0F08E47
:10247800C7EFA2E792AF7402120AA7E0FCA3E0FD3F
:10248800851882851983AE09E06E7002A3E0700C8E
:10249800ECF8EAC398FAEB9400FB8024ED548060D2
:1024A8000302241AEC2404FEE43DFFC3EA9EEB9FDA
:1024B800400AC3EA9CFAEB9DFB02241A7A007B00CF
:1024C800022387F08C828D83A32274EA120AC374D4
:1024D800F8120A5B8910750DFF747D697005750C1B
:1024E8007E8003750C7D750A04750B00900C4FE017
:1024F80024FCFEA3E00225CD851882851983A3E07C
:10250800548060030225B7851882851983A80DE0D9
:10251800687002A3E070030225B7851882851983C5
:10252800E0F50DFCAA0AAB0BA90C1206F9EA4B70F0
:102538007E7402120AA7E0F8A3E0F9EEC398F50842
:10254800EF99F50988148915750E00750F00751235
:10255800047513007812120CD67406120AB9E5082D
:10256800250EFAE509350F122786120A717404122E
:102578000AB9E50A250EFAE50B350FFBA90C120777
:102588000BE50E2404F50EE4350FF50FC3E514959D
:102598000EE515950F50B77402120AA7E02404F847
:1025A800A3E03400F9E50A28F50AE50B39F50B74C0
:1025B80002120AA7E0F8A3E0F9C3EE98FEEF99FF2C
:1025C800EE24FCFEEF1226484052900C51E0706653
:1025D8007508047509007808120CD67402120AB935
:1025E800EEFAEFFBA91012278C120A718518828562
:1025F8001983E0F47003A3E0F46003022500740279
:10260800120AA7E0F8A3E0F9548070B4E82404F8AB
:10261800500109C3EE98EF995095801AA90C12063B
:10262800E1900C51E0700A900C4FE50AF0A3E50B1D
:10263800F0A9101206E77408120A717F0E020B95B2
:1026480034FFFFC3EE9404EF94002274F5120AC31A
:10265800E9FE740F5EF508750900740B7808120A14
:1026680048EA2400F8EB3480F9EA2400E93509F94E
:10267800ABC7A2AFE433FFC2AFEE1226EB740B1266
:102688000AA7E0FA800EE82404F8500109EC2404B3
:10269800FC50010D74FF2AFA04603C88828983E0AB
:1026A800F5088C828D83E0650870268882898312FC
:1026B80026FDE06508701A888289831226F7E0658E
:1026C80008700E88828983A31226F7A3E065086044
:1026D800B5900C517401F08BC7EFA2E092AF7F0365
:1026E800020B95C4540FFAE5C754F84AF5C722A35C
:1026F8001226FDA322A3E0F5088C828D83A3227401
:10270800F0120AC3890C8A088B09ECFEEDFF900CC5
:1027180051E0704F750A01750B00780A120CD68AC1
:102728000A8B0B7402780A120A39E9F50E750F0044
:102738007409780E120A48E50A2400FAE50B350FE9
:10274800FB12056D7402120A71750A01780A120CDF
:10275800DAEEFCEFFDAA08AB09A90C120705740113
:10276800120A717F08020B95C082C0831206DBE94A
:1027780070047901800279000222C4EEFAEFFB901E
:102788000C4EE0F9120567740222C082C083906182
:10279800907404F0A37448F0A3E4F090618074404E
:1027A800F09061BC7407F09061877469F09061B62D
:1027B8007416F079001203B179021203B79013FC72
:1027C800E493F46006E493F912038D790512051376
:1027D800022B34C082C083E9540FF9906185E06907
:1027E8006012E5C654B84441F5C6E59E54476441B5
:1027F80070F8E9F053C6B8E59E544770FA022B34D6
:1028080074F7120AC3AEA853A87E120399C2BA532A
:102818009AFEC289759B00C2C212039F75A91175E1
:10282800B9051203A5D2BA439A0174805E42A80280
:102838002D23C082C083906181E4F0A3022BF97537
:10284800E90075910075BF00020132C082C0839013
:102858006181E4F0A374C0F0A3E4022BFBC082C042
:102868008374F8120A5B900305122D28E849700357
:102878000228FB900305E0544060177908AA18ABBA
:10288800191203EDAA18AB1912030F900305E054AF
:10289800BFF0E0A2E05008790012290354FEF0E0EE
:1028A80054026008790112290354FDF0E0540460D1
:1028B80008790012290E54FBF0E0540860087901E9
:1028C80012290E54F7F0E054106008790212290E0C
:1028D80054EFF0E054206008790312290E54DFF019
:1028E800A3E05401600D1203C3120321900306E014
:1028F80054FEF07408120A71022B341203B1120349
:1029080015900305E0221203B712031B900305E09C
:1029180022C082C083E9600514602A804F90619AC2
:102928007433F0A37455F09061A0743AF090037971
:10293800E064017009C2919003077467802D9003C9
:10294800077461802690619A743FF0A3745AF090DE
:1029580061A0747FF0900379E064017009D29190CE
:10296800030774718005900307746AF0022B34C062
:1029780082C083E9600B14600D14601714600C802A
:102988002090140080159014018010900379E06461
:102998000170059014028003901403E493906186FB
:1029A800F0022B3474EC120AC374F4120A5B908E92
:1029B80089AC18AD1974041209AF90140093F4602F
:1029C80003022ACF907808E0C394025003022AB386
:1029D800908E577404120AB974081209AF7F0075F3
:1029E8000CFF750DFF750EFF7E00EFFC25E0F8E487
:1029F80033F97404120AA7E58228F582E58339F5CC
:102A080083E0F512A3E0F513800F74086E605B7421
:102A1800096E6056740A6E6051EEF5087509007407
:102A2800027808120A48122AD9120960A909E50A87
:102A3800C9F510741878081208B4E5104508F8C3E9
:102A4800E51298E51399400AE512C398F8E5139939
:102A58008008E8C39512F8E99513F9C3E8950CE9DD
:102A6800950D5006880C890D8E0E0EEEC3941340FA
:102A78009974FF650C700474FF650D6024E50EF50C
:102A88000874027808120A48122AD91209608518AF
:102A980082851983E5822CF582E43583F583E50880
:102AA800F00FEFC3940450030229E7750801750974
:102AB800007808120CD67402120AB97A007B051243
:102AC800056D7402120A71740C120A717F0C020BE4
:102AD8009574482508F58274783509F583780822B5
:102AE800C082C083906186E0F8901403E493687014
:102AF80009901402E493906186F09061AE7468F0D6
:102B0800A3746AF090624574FBF0A304F053F4FDDB
:102B180043FE029003797401F09061A0E0643A707A
:102B2800047900800279011203B18000D083D08239
:102B3800020132C082C08375E1F190032EE024FEC9
:102B4800604D14704F1203CF90031DE0F97A1E7B7D
:102B5800031204B9908E8512097E1204E3908EBD8B
:102B680012097E1204BF90032FE0F91204CB7901F9
:102B780012050790031BE0F8A3E0C8241AF582E4C5
:102B880038F58374DBF0A37403F07900022B341258
:102B980003D580B4791280F4C082C083122C7644A5
:102BA80002F5D97800122C8A40FB7800800DE8FAEB
:102BB80074352AF582E43403122D1CE8C39940EEDB
:102BC80075E195900CE2122BE3F0A3122BE3122C83
:102BD8009F7414F090030374048018747B122BF014
:102BE800122BF0F0A3740322F0A37403F0A3747BF8
:102BF80022F0A3F0022B34C082C083122C76FA7420
:102C0800064AF5D97800E8FC741E2C122C8F40F681
:102C18007800800DE8FC74352CF582E43403122D1D
:102C28001CE8C39940EE900354E0F9740729F5D9DC
:102C380074044AF5D97800122C8A40FB7800800D7C
:102C4800E8FA74552AF582E43403122D1CE8C39976
:102C580040EE75E195900CE27475F0A37403122CA4
:102C6800E1122C9F7415F090030374038085900380
:102C780034E0F9740729F5D990031DE0C4333354BF
:102C8800C022E8FA741E2AF582E43403F583E0F5DD
:102C9800D908E8C3940622F0A37481F0A374031240
:102CA8002CD6122CE5122CCC240EF582E438F583B0
:102CB80074FFF0A3F0A3F0A3122CCC2414F582E443
:102CC80038F58322F090031BE0F8A3E0C822F090C7
:102CD8000CF074F9F0A3740322122CE522F0A3740B
:102CE800F9122CF4122CF4F0A3740322122CFB1208
:102CF8002CFB22F0A37403F0A374F922C082C083D2
:102D080090031BE0F8A3E0C82406F582E438F583B5
:102D1800E4022BF9F583E0F5D908227F01020B952F
:102D2800E0F8A3E0F922C082C083E490030B78089E
:102D3800F0A3D8FC90030B04022BFBC082C0839045
:102D48000385E4F090038474FFF09003A1E4F0900D
:102D580003A074FFF0900381F0900380E4F09003E7
:102D68007FF0900382F0A302323E74F0120AC390FF
:102D78000382E0F508A3E0F509E5084509700612A5
:102D880003AB022E57850882850983E0F914600A8F
:102D980014600724FE6003022E571204118A0A8B5E
:102DA8000BAE0AAF0BEA65087003EB650970030206
:102DB8002E548A828B83E064016003022E5712032B
:102DC800C9122FA4122F99908EB1780C1208FF788F
:102DD8000C120CD285088285098312097E122FB83D
:102DE800120A71E9705C122FA4908EAD780C12084B
:102DF800FF908E91780C12094D8508828509837899
:102E08000C12096FEE240EF8E43FF9E8FA90030378
:102E1800E0640270268508828509837808120960B3
:102E2800908E6D78081208FF908E91780812094DDF
:102E38008A828983780812096F80078882898312B9
:102E48002E5C9003817401F0EEFAEFFB12040B7F05
:102E580008020B9574FFF0A3F0A3F0A3F02274F01E
:102E6800120AC3EAFEEBFF8A82F583A3A3A3A3A3F6
:102E7800A3E0FAA3E0FB120465122F998882F58378
:102E880012097E12045985088285098312097E1267
:102E9800044D1231E312097E12045F8E828F83E0A3
:102EA8006440701BEE2412F8E43FF98882F583E051
:102EB800906064F088828983A3E0906065800690C2
:102EC8006064E4F0A3F0900382EEF0A3EF1231ED1A
:102ED800E0F8A3E0F5838882120AC1906054E412F6
:102EE8002FB0A3122FB0906182E0C2E6F07591BFB7
:102EF800EE2415F8E43F880AF50B8882F583E06430
:102F08000170031204A1E5E170FC1231D9E0F874F4
:102F1800FF68600288E1850A82850B837401F0905E
:102F28000309E064017067122FA4780C120CD28593
:102F3800088285098312097E12132A7404120A7101
:102F48008A088B098C0A8D0B908E71780C12096097
:102F58007808790C1207C5740378081208B4E508D4
:102F680024F4F508E5093401F50990037BE06003D2
:102F780012069FE4F50AF50B7808120CD27A207B2A
:102F880000900302E0F912072F7404120A71022E4E
:102F980057EE2402F8E43F8808F5092212047D8AD6
:102FA8000C8B0D8C0E8D0F22122E5EA3F0A3F02237
:102FB8001212CE74042274EE120AC3890874FF69CF
:102FC800702E900380E0540770030230E01230F74F
:102FD80070047904801479011230F9700479018041
:102FE8000979021230F97008790212042F0230E4CC
:102FF800A90812042F8A108B11A9081230F970043D
:10300800D2008002C200E5102402F50AE43511F569
:103018000BE50814600A14605A24FE606C0230E064
:1030280079021230F9703779021230E9502A8A820F
:103038008B83A3A3780C120960908E75780C120804
:10304800FF780C120CD2850A82850B8312097E1236
:103058002FB8120A71E9607AEEFAEFFB807E12301F
:10306800F76015A2005006AA10AB11806F7A007B9A
:103078000080691230F770047904802179011230D8
:10308800F9600DA2005051804979011230F970049D
:103098007901800979021230F9703379021230E926
:1030A80050B68A828B83A3A3780C120960908E7520
:1030B800780C1208FF780C120CD2850A82850B83D3
:1030C80012097E122FB8120A71E9708C8004A200CE
:1030D8005006AA10AB1180047A007B007F0A020B0D
:1030E8009512042F8A0C8B0DAE0CAF0DA20022791D
:1030F80004120429E964012274F4120AC389087AC3
:1031080000EA75F01CA4F8A9F0747F28F874033954
:10311800F9E82406F50AE439F50B850A82F583E017
:1031280060030231C6E82405FEE439FF8E82F58388
:10313800E0F46010900382E0F8A3E0F9EE68700212
:10314800EF69607A8E828F83E508F012047DEAF8D1
:10315800EBF9ECFAEDFB8E828F83A3A31209968E0E
:10316800828F83A3A3A3A3A3A3E4F0A3F01231E364
:10317800122E5C1231D97401F0EE2415F582E43F69
:10318800F58374011231EDE4F0A3F0850A82850B12
:103198008304F0900380E04508F090037FE004F09A
:1031A8006401600C748065086006744065087008E6
:1031B800900382EEF0A3EFF0EEFAEFFB800E0AEA3E
:1031C800C3940250030231097A007B007F04020B8A
:1031D80095EE2414F582E43FF58322EE240EF58261
:1031E800E43FF58322F0EE241AF582E43FF58322CA
:1031F800C082C0838A828B83E0F8A3E0F98A828B3D
:1032080083E4F0A3F088828983A3F088828983E02D
:10321800F4F8900380E058F090037FE014F0701405
:10322800900382E4F0A3F0900303F0FA900302E025
:10323800F91206C98001F0D083D082020132C0821F
:10324800C08390037FE0600A900382E0FAA3E0FB6A
:1032580080047A007B0080DFC082C083E9FB7800AD
:10326800900384E06B7016E875F01CA4F8A9F0745C
:103278008528F582740339F583E0F9800A089003FC
:10328800A0E06B60E2790080AEE0F980AA74F712E2
:103298000AC37800E875F01CA4FAABF0747F2AFA28
:1032A80074033BFBEAFCEBFDEA2405FAE43DFB8AE8
:1032B80082F583E069700F8C828D83A3A3A3A3A3F7
:1032C800A3E06401600B08E8C3940240C77A007B5E
:1032D800007F01020B95C082C08390037F80AA748F
:1032E800F2120AC38909ECFEEDFF750800E9F50A38
:1032F800750B008A0C8B0D780C120D1A02030870DE
:10330800341B3375339033C933F9330F3425343EC6
:10331800345434740169600302346B900C68E0F82B
:103328008C828D83E0900C68F0E8601CE0600302FA
:103338003492900282E06402600302349290028127
:10334800E0F912028B023492E07003023492900288
:1033580082E064016008E0640360030234927A0149
:103368007B00900281E0F9120669023492740269C6
:10337800600302346B8C828D83E0F8A3E0F9900C33
:1033880069E8F0A3E9023468E9C3942040030234F1
:103398006B7C1F7D0079007A6C7B0C120633780AEF
:1033A800120CD6EEFCEFFD7A6C7B0C1236DE120A9C
:1033B80071E509900C6BF07C6C7D0C123499023429
:1033C8008AE9C39420400302346B7C1F7D00790096
:1033D8007A8B7B02120633780A120CD6EEFCEFFDCC
:1033E8007A8B7B021236DE120A71E50990028A8016
:1033F8006F740169706D8C828D83E0F8C3940550F9
:1034080062E89002AA805974016970578C828D8392
:10341800E0F8C39404504CE89002AB80437406690A
:103428007041750A06780A120CD67AAC7B021236FD
:10343800DE120A71805474016970288C828D83E0D1
:10344800F8C39408501DE89002B2801474016970A2
:10345800128C828D83E0F8C394045007E89002B37D
:10346800F080277508188022C3EA9427EB9400504F
:103478001674026970118C828D83E0FCA3E0FD1242
:103488000243E9F5088003750802A9087F06020BC4
:1034980095FB7A01900281E0F91202852274F412F8
:1034A8000AC3ECFEEDFF7508008A0A8B0B780A1236
:1034B8000D1A00030A5435D534DA34EB34F03402EB
:1034C800351135203525352A3545354A359002835D
:1034D8008073750A06750B00780A120CD67C847DF9
:1034E80002804E900C68805D900C69E0F8A3E0F9CA
:1034F8008C828D83E8F0A3E98066900C6B12357599
:10350800120CD67C6C7D0C802890028A12357512BC
:103518000CD67C8B7D0280199002AA80289002AB81
:103528008023750A06750B00780A120CD67CAC7DD0
:1035380002EEFAEFFB1236DE120A7180299002B20F
:1035480080039002B3E08C828D838014C3EA9427B1
:10355800EB9400500E1202498E828F83EAF0A3EB9F
:10356800F08003750802A9087F04020B95E0F50AAC
:10357800750B00780A2274F6120AC3900282E07072
:1035880037EA4B60089002B4EAF0A3EBF0E4F508E0
:10359800F5097808120CD67808120CD67C007D0044
:1035A8007B00900283E0FA900281E0F912052B7407
:1035B80004120A717900800279117F02020B957456
:1035C800F7120AC3E9900281F0900282E4F0120235
:1035D800CD9002837401F09002AA7403F09002ABBC
:1035E800E4F09002B27407F09002B3E4F07F0102B5
:1035F8000B9574F4120AC374F6120A5B8A088B09D5
:10360800EB5480602F900281E0F91206518A0A8BF0
:103618000BAF0BEA4F60138A828B83E064D0700390
:1036280012023DAA0AEFFB12063FAA08E5096480C8
:10363800FB0236D6EAA2E040030236D2900C68E0DC
:10364800607F9002AAE0851882851983F09002AB0A
:10365800E0C0E07401120AA7D0E0F0750A06750B05
:1036680000780A120CD67CAC7D027404120AA7AA50
:1036780082AB831236DE120A719002B2E0C0E074A7
:1036880008120AA7D0E0F09002B3E0C0E074091273
:103698000AA7D0E0F0AA18AB19900281E0F912024B
:1036A8007FE9601D9002827404F01236E460121201
:1036B800380C8882F583E582458360057904120A0F
:1036C800C1E5086401FAAB0980047A007B00740A3A
:1036D800120A7102357012062D7402229002B4E0AB
:1036E800F8A3E0F9E8492274F4120AC38A828B83AA
:1036F800A3A3E0F8EA2403FCE43BFD8A828B83A3BE
:10370800AE82AF83E8601224FE605C147003023757
:10371800BE1470030237BE804BE07027750806752B
:1037280009007808120CD67A847B021236DE120A57
:10373800719002827401F07C6C7D0C900C6BE0122D
:103748003499E960069002827404F01236E4601439
:1037580012380CFBE84B600C900282E0F988828BEF
:1037680083120AC1023570E070438C828D83E06059
:10377800167C8B7D0290028AE0FB7A0012349CE969
:103788008E828F83F08026900282E06402601E7A27
:10379800017B00900281E0F9120741EA4B4C4D7021
:1037A8000C7A017B00900281E0F91206698E828F03
:1037B80083E0709180AEE0708C74036870079002AB
:1037C8008274028085900C691236E7900C68602A32
:1037D800E06029900C69E0F508A3E0F509E4F50A32
:1037E800F50B7808120CD27A017B00900281E0F97F
:1037F80012072F7404120A718002E4F09002827496
:1038080003023752E0F5838882E0F8A3E022C08201
:10381800C083900C54123824F0023922E4F0A3F04B
:10382800A3F0A32274F0120AC38908EAFEEBFF1280
:1038380007237410120AA7780C120960EA4B600D6E
:103848008A828B83A3A3780C12096F80677A0D7B19
:10385800001206B1EA4B60588A828B83A3A3A3A304
:10386800A3A3A3A3E5081238C1EEF0A3EFF08A8260
:103878008B83A3A3780C12096F8A828B83E4F0A34D
:103888001238C1A3A3A3123825F0123C05900C529C
:103898006017E0FCA3E08003E8FCE9FD8C828D83DF
:1038A800123C0870F38C828D83EAF0A3EBF080045D
:1038B8007A007B007F08020B95F08A828B83A3A392
:1038C800A3A3A3A322C082C083900C5280048C823D
:1038D8008D83E0FCA3E0FDEC4D60238C828D83A3F7
:1038E800A3A3A3A3A3E06A7003A3E06B70E08C8298
:1038F8008D83A3A3A3A3A3A3A3A3E06970D0ECFA29
:10390800EDFB8016C082C083EA4B600E8A828B83EF
:10391800A3A3A3A3A3A3E4F0A3F0D083D0820201BE
:103928003274F6120AC3AEA8C2AF740A120AA712FA
:103938000CE912071D7404120A718B09A909EEA279
:10394800E792AFEA4960047900800279087F0202B1
:103958000B9574F2120AC3A2AFE433FEC2AF740E21
:10396800120AA778081209607808120CD212071DEB
:103978007404120A71EA4B60128A828B83A3A3A390
:10398800A3A3A3A3A3A3780812096FEEA2E092AFA2
:10399800EA4B60047900800279087F06020B95746F
:1039A800F4120AC3A2AFE433F508C2AF1207238AA0
:1039B8000A8B0BAF0BEA4F6003120729E508A2E058
:1039C80092AFE50A4F60047900800279067F04020D
:1039D8000B9574F2120AC3750800750900750A0080
:1039E800750B00A2AFE433FEC2AF1207238A828BA5
:1039F80083E58245836007A3A37808120960EEA2D5
:103A0800E092AFAA08AB09AC0AAD0B808D74EB123B
:103A18000AC374FC120A5B851882851983EAF0A32D
:103A2800EBF0A3ECF0A3EDF0A9A8C2AF851882854E
:103A380019837808120960900C547808120912E961
:103A4800A2E792AF123C057003023BFB900C52E0D8
:103A5800FEA3E0FF751000751100750A00750B00D4
:103A6800A2AFE433F514C2AFEE2402F508E43FF543
:103A7800097402120AA7123C0870207401120AA7DE
:103A8800E07018851882851983E0F8850882850911
:103A980083E0C3984005E0C398803985088285098A
:103AA80083780C120960851882851983780C1207AF
:103AB800965018851882851983780C120960850834
:103AC80082850983780C120939800A85088285095C
:103AD80083123824F0EE2406F512E43FF513EE24A1
:103AE80004F50EE43FF50F850882850983123C082A
:103AF8007054850E82850F83123C087054EE240999
:103B0800F50CE43FF50D850C82F58312098AE84926
:103B18004A4B6053851282851383E0FAA3E0FBEADF
:103B28004B60448E828F83A3A3A3A3A3A3A3A3E084
:103B3800F9120669850C82850D8312098A85088227
:103B4800850983120996850882850983123C0870C5
:103B58000B850E82850F83123C08600B85128285C7
:103B68001383123C0870258E828F83E0F8A3E0F956
:103B7800E51045117005900C52800685108285115C
:103B880083E8F0A3E9F08E0A8F0B80048E108F1162
:103B98008E828F83E0FEA3E0FFE514A2E092AFE5FA
:103BA8000A450B6047850A82850B83A3A3123C084C
:103BB8007033850A82850B83A3A3A3A3123C0870E4
:103BC80024850A82850B83A3A3A3A3A3A3E0FAA356
:103BD800E0FB850A82850B83A3A3A3A3A3A3A3A3C6
:103BE800E0F9120669AA0AAB0B1206B7EE4F60039A
:103BF800023A627404120A717F0D020B95900C52FE
:103C0800E0F8A3E0F9E8492274F0120AC3123C056F
:103C18006047900C52E0FAA3E0FB75088E7509C264
:103C2800750AF5750B288A828B83A3A3780C120971
:103C3800607808790C120786500C850C08850D09E8
:103C4800850E0A850F0B8A828B83E0F8A3E0F9E8DA
:103C5800FAE9FBE84B600E80CD7508007509007520
:103C68000A00750B00AA08AB09AC0AAD0B0238BCF8
:103C7800C082C08312076B023D5274F7120AC374E4
:103C880009120AA7E0F8A3E0F9801C8C828D83E072
:103C98008A828B83F08C828D83A3AC82AD838A82E7
:103CA8008B83A3AA82AB83E8FEE9FFEE24FF18EF1B
:103CB80034FFF9EE4F70D4023D69EFFB7F06020B2B
:103CC800957F03020B9574F6120AC38C088D097848
:103CD80008120CD6E9FC7D001207657402120A71FD
:103CE800023EAA74F6120AC3EAFEEBFFEA4F6031FD
:103CF800EA2405FAE43FFB1206B18B09A909EA494F
:103D0800601F8A828B83E4F0A3123EA4A3A3123E11
:103D1800A0A3A3A3A374FFF0EA2405FAE439FB8067
:103D2800047A007B00023EAAC082C083EA4B70047A
:103D380079058016123DD160047904800DEA24FBD0
:103D4800FAEB34FFFB1206B77900D083D082020168
:103D58003274F7120AC37C0012064B8004A2E09268
:103D6800AF7F01020B9574F7120AC3E9FEECFFEA74
:103D78004B6026908ED2E0F8E9C398400712063FC0
:103D880079038043EA24FBF582EB34FF123F577036
:103D980005123DD1600712063F7905802AEEF074BE
:103DA800016F700DEAFCEBFD7AF87B0312065D806B
:103DB8000BEAFCEBFD7AF87B031206577A007B804E
:103DC800EEF912066979008098EA24FFF582EB344F
:103DD800FFF583E0F42274F2120AC3750C00750D26
:103DE800007E007F00A2AFE433F50AC2AF9003F86B
:103DF8008015EE4F700685080C85090DE50824FB33
:103E0800F582E509123F52123EB7E50845096022DE
:103E1800E50824FFF582E509123F52E06970D3EE08
:103E28004F7006AE08AF0980D37A007B801206690E
:103E3800800B7A007B8012066FEE4F6015780C12AB
:103E48000CD6EEFCEFFD7AF87B03120663740212BF
:103E58000A71E50AA2E092AFEEFA023CC2E0FAA3C8
:103E6800E0FB2274F7120AC3A2AFE433FEC2AF121A
:103E78003F4CE4F0A3123EA4800C123EAFF9E8FADE
:103E8800E9FB8882F583123F5970EF8A828B83ECB5
:103E9800F0A3EDF0EE023D65EEF0A3EFF08A828B21
:103EA80083227F02020B95E824FBF8E934FF22E025
:103EB800F508A3E0F5092274F7120AC3A8A8C2AF4F
:103EC8008A828B83E0FEA3E0FF123F4C123EA0ECF7
:103ED800F0A3EDF0E8A2E7023D6774F5120AC3A269
:103EE800AFE433F50AC2AFEC24FBF8ED34FFF9E890
:103EF800FEE9FF8882F583E0F8A3E0F98A828B83E4
:103F0800123EB7EC65087003ED650970068A828B6E
:103F1800838012740B120AA7E0FAA3E0CA24FBF507
:103F280082EA123F52E8F0A3E9F08E828F83E4F030
:103F3800A3F0EC24FF123F4F74FFF0E50AA2E092D1
:103F4800AF023CC9EC24FBF582ED34FFF58322F582
:103F580083E0F8A3E0F9E8492274F7120AC3908EC7
:103F6800D2E0F8E9C3985027ACA8C2AFE929F8E431
:103F780033F9900C4CE028FDA3E0398D82F583E0FD
:103F88004AF0A3E04BF0ECA2E792AF790080027907
:103F980003023D6974F7120AC3908ED2E0F8E9C3B0
:103FA800985021AEA8C2AFEAF4FCEBF4FDE929125F
:103FB80040A9F583E05CF0A3E05DF0EEA2E792AFE4
:103FC800790080027903023D69E9F874FF68700698
:103FD800C2AF790080027907020132C082C0831221
:103FE80006A59003F8E4F0A3F01207171206BD1215
:103FF80006D51206AB7900023D52C082C083120674
:104008008780FB74F6120AC375080012069F120512
:1040180061A808E8281240A9123F57700D050890BA
:104028008ED2E0F8E508C39840E7908ED2E0F8E534
:1040380008C3985066ACA8C2AFAE08EE2EFEE433B3
:10404800FF900C4CE02EF8A3E03FF98882F583122C
:104058003E6588828983E4F0A3F0ECA2E792AFE59D
:1040680008900CFDF0F974312EF582748E3FF583BB
:104078001240B9120AC1900CFD74FFF0A8A8C2AF93
:10408800900C4CE02EF9A3E03F8982F583E04AF0DA
:10409800A3E04BF0E8A2E792AF80031206CF023EFE
:1040A800AAF8E433F9900C4CE028FAA3E0398A82A4
:1040B80022E0F8A3E0F583888222C082C08312043C
:1040C8004175A70075A100759C7775C30075A2009E
:1040D80075A30075A40075A50075A60075C31175B4
:1040E800A20075A30075A40075A50075A60075C388
:1040F8003375A20075A30075A40075A50075A60008
:1041080075C34475A20075A30075A40075A5007554
:10411800A60075C32275A22075A34E75A40075A5C7
:104128000075A6007594081204474394020241C41E
:10413800A2AFE433F8C2AF5394FEE594A2E240FA8A
:10414800E8A2E002434DA2AFE433F8C2AF439401C2
:10415800E594A2E250FA80E8E8A2E792AF801E75E3
:10416800C303851882851983E0F5A2740122A2E7AA
:1041780092AF851882851983E0FAA3E0FB74028068
:1041880038E5A4851882851983F0E5A5C0E0740197
:10419800120AA7D0E0F0E5A6C0E07402120AA7D080
:1041A800E0F07403120AA7E4F0E8A2E792AF8518DA
:1041B8008285198312097E7404120A71D083D08211
:1041C800020132C082C08374FC120A5B12426B1275
:1041D80041F3120AA7124265120AA7E0F5A675A1D3
:1041E800EF43A710E8A2E792AF80CC75C3308518DB
:1041F80082851983E0F5A4740122C082C08374FE0D
:10420800120A5B12422575A1FD124167120AA7E046
:10421800F5A3E59C54F04401F59C02416012422C40
:1042280053A7FD22851882851983EAF0A3EBF0A82D
:10423800A8C2AF22C082C08374FC120A5B12426B10
:1042480075A1EF1241F3120AA7124265120AA7E0FC
:10425800F5A6E59C54F04404F59C0241ECE0F5A574
:104268007402221242D7A8A8C2AF53A7EF2274F44F
:10427800120AC374FC120A5B1242D3A2AFE433F9E8
:10428800C2AF53A7DF75A1DF908EB9780812096015
:1042980085188285198378081207717005439C7008
:1042A800801A75C3401241F6120AA7124265120A13
:1042B800A7E0F5A6E59C540F4450F59CE9A2E092CE
:1042C800AF7404120A717F04020B951242D722853B
:1042D8001882851983EAF0A3EBF0A3ECF0A3EDF0C4
:1042E80022C082C08374FE120A5B851882851983F6
:1042F800EAF0A3EBF0851882851983E0F8A3E0F9CA
:10430800E8496015A8A8C2AF75C30012416A120A2D
:10431800A7E0F5A3E8A2E792AF024185A8A8C2AF3B
:1043280053A7C9801AA8A8C2AF53A7C9759C77809C
:104338000EA8A8C2AFE59C54F04407F59C8003750D
:10434800A1C9E8A2E792AF020132A3A3A3E4F0E86F
:10435800A2E792AF0241C4C082C08374FC120A5B18
:10436800A8A8C2AF75C300E5A2024189C082C08374
:1043780074FE120A5BA8A8C2AF75C300E5A285182F
:1043880082851983F0E5A3C0E07401120AA7D0E082
:10439800F0E8024176C082C083A8A8C2AF75C30006
:1043A800E5A28A828B83A3A3A3A3F0E5958C828DD3
:1043B80083F0E5A38A828B83A3A3A3A31243E4A378
:1043C800A3A3E4F0E5968C828D83A3F0E5978C8215
:1043D8008D83A3A3F08C828D83024352A3F0E5A4BE
:1043E8008A828B83F0E5A5A3F0E5A68A828B83A356
:1043F800A3F08A828B8322C082C08374FC120A5B7A
:10440800A8A8C2AFE595851882851983F0E596C0FE
:10441800E07401120AA7D0E0F0E5970241A0C0823B
:10442800C08374FE120A5BA9A8C2AFA8C375C300F3
:10443800E5A2E5A4851882851983F0E5A5C0E07496
:1044480001120AA7D0E0F088C3E9024176C082C011
:10445800831204A71204AD1204B31204A10246FC8D
:10446800C082C0839061B1E0C2E0F0E0D2E0F09099
:104478006188E0640470F80246FCC082C0839061E1
:10448800B1E0C2E0F09061F3E4F09061F2F0F8F985
:104498001244E99061F0F008E8700109C394FEE95C
:1044A800940D40EC0246FCC082C0839061F3E4F0B6
:1044B8009061F2F0F8F99061F0E0FA1244E96A705C
:1044C8000D08E8700109C394FEE9940D40E874FEF4
:1044D800687003740D6970047900800279010246DE
:1044E800FC740028F582748039F583E022C082C00C
:1044F800839061C0E0FAE4F0F8F9E82400F582E975
:104508003460F583E4F008E8700109C39480E99405
:104518000140E7EA9061C0F090618A74010246F7B1
:10452800C082C0838A828B83E0906016124565E062
:1045380090601712456E90601812457490601912B9
:10454800457B90601A12458090601BF0E9906015D9
:104558007005E0C2E08003E0D2E00246FB12456944
:104568002212463EA322124569A3E022124569A3FE
:10457800A3E022124586E022124586A3E0221246D5
:104588003EA3A3A3A32274F0120AC3EA906005F025
:10459800EBA3F0ECA3F07F08020B95C082C08390D8
:1045A8006001E002461AC082C08374075990600116
:1045B8000246FBC082C0837401699060037005E005
:1045C800D2E08003E0C2E00246FBC082C083906074
:1045D80003E054F9490246FBC082C083906061E061
:1045E80002461A74F0120AC39061947420F0EAA388
:1045F80012468D02459CC082C0839003BCE4F090B3
:104608006022F0A3F07582247830E4F0A3D8FB028E
:1046180046FCF90246FCC082C083906014E054FC5A
:10462800F0E0490246FBC082C083906009E402467C
:10463800FB9061C07401F08A828B8322C082C083A0
:104648007A007B60E970027A33124639E4F0A312EB
:104658004565A3F09061C00246FBC082C083E99023
:1046680060020246FBC082C083E99060027005E0E8
:10467800D2E38003E0C2E30246FBC082C083E99034
:1046880061C60246FBF0EBA3F0ECA3F0ED22C0827A
:10469800C083E9601714601C14601E146023146042
:1046A8002514602A14603314603C80419061E9E06D
:1046B80054FC80389061E9801C9061E9E0C2E08098
:1046C8002B9061E9801B9061E9E0C2E1801E906156
:1046D800E9E0C2E1F0E0D2E080129061E9E0C2E0F6
:1046E800F0E0D2E180069061E9E04403F08005F053
:1046F800A3F0A3F0D083D08202013274EE120AC371
:104708008A088B09890B8C0E8D0F9003BFE0700906
:104718009003C1E070030247BB9002DEE060030231
:1047280047BBE9F50C750D002407FAE43400FB12C9
:1047380006398A108B11AE10AF11EA4F7003024789
:10474800CC74186508700474206509600C741765CA
:104758000870047420650970109003C1E0600AF5C0
:104768000A8A828B837492800C9003BFE0F50A8AD0
:10477800828B837491F0A3740E1247DC7401124883
:10478800EA1247D1EA2407FAE43FFB8E828F83A31B
:10479800A3A3A3A3EAF0A3EBF0780C120CD6AC0EFB
:1047A800AD0F124992120A71EEFAEFFBA90A12062E
:1047B800458011780E120CD6AC0B790E12032D74AD
:1047C80002120A717F0A020B95A3A3A3E508F0A3BE
:1047D800E509F0221248F62274F2120AC389098AFE
:1047E8000A8B0B8C0874072CF974FF650960047830
:1047F8000380027802E928FA7B001206398A0C8BBA
:104808000DAF0DEA4F70030248E31249103FF9EA71
:104818002402FAE43FFB8A8212491A8A828B8312A5
:10482800496CE5091248EAE02402F8A3E03400F5EF
:104838000DE50BF9740E120AA71248FE74FF6509FC
:10484800602F740325088882850D831248EA12496F
:104858004012492DE50AF0124947E9F0E508F50A42
:10486800750B00780A120CD68A828B83E0240680A6
:104878005D740225088882850D831248F0E0C0E047
:104888008A828B83124988D0E01248F0A3E0C0E006
:1048980012492DD0E01248F0A3A3E0C0E012494726
:1048A800D0E01248EA1249601248E8124954E9F087
:1048B800E50824FDF50AE434FFF50B780A120CD656
:1048C800EC2403FC50010D8A828B83E024081249F2
:1048D80004120A71AA0CEFFB1249A77F06020B9576
:1048E800E50AF08A828B8322F08C828D8322F08AFB
:1048F800828B83A3A322E0FCA3E0FD22FAA3E03489
:1049080000FB12062D74022212491422124998F84B
:10491800E42212491E22F583E8F0A3E9F08882898F
:10492800837404F0228A828B831249352212493912
:1049380022124978A3A3A32212498C7401F0228A77
:10494800828B8312494F22124939A32212498224A9
:1049580007F582E438F583221249822406F582E4B9
:1049680038F583221249702212497422124978229A
:10497800E0F8A3E0F5838882A322E0F8A3E0C82248
:1049880012498C22124974A3A32212062D74022202
:104998008A828B837401F0A374FFF0EA24042290C6
:1049A80003BDE0F912064522C082C0839003F2E4F9
:1049B800F0A3F01205B5D083D08202013274EC1254
:1049C8000AC38A0C8B0D890E9003F2E0F8A3E0F974
:1049D800E84970187A117B001206B19003F2EAF0E8
:1049E800A3EBF079017AFE7B8D1205AFAA0CAB0D13
:1049F800120627EAFEC3941140027E10EEF508F570
:104A0800107511007401650E70287810120CD6AC60
:104A18000CAD0D9003F2E0FAA3E0124AC3120A713A
:104A28009003F2E02EF8A3E034008882F583E4F0E6
:104A3800807B9003F2E0FAA3E0FB120627EAF50A6E
:104A48002E2402FA7B001206B18A128B13AE12AF23
:104A580013EA4F6058E50AF5127513007812120C24
:104A6800D69003F2E0FCA3E0FD124AC4120A71A832
:104A78000AEE28F582E43FF5837420F0050A7810E1
:104A8800120CD6AC0CAD0DEE250AFAE43F124AC35F
:104A9800120A71E50A2508F8E43400F9EE28F582CF
:104AA800EF39F583E4F0EEFAEFFB1206B7AA0CAB88
:104AB8000DA90E1205DF7F0C020B95FB12062D7453
:104AC8000222C082C08353F3FED28043FD0153F417
:104AD800FDD29143FE0253F4FBD29243FE0443F10C
:104AE8000243F42043F44043F48075FB8075F800DA
:104AF80075FC2F75FA00C2917A987B3A1205E5D2B7
:104B0800917A0F7B001205E579151205BB790F1212
:104B180005C7790E1205BB79251205BB791C12054C
:104B2800BB7A087B521205E51205CD1205D3792907
:104B38001205BB0249BEC292C28053F8F989F9A294
:104B4800F950FCA2F950FC00000000D29202013298
:104B5800C292D28053F8F989F9A2F950FCA2F9500F
:104B6800FC0000000080E474F7120AC3E9FE7950E3
:104B7800124BC6801374F7120AC379801205BB7EE4
:104B88003079201205C1DEF97F01020B9574F71206
:104B98000AC379C01205BB7E4079001205C1DEF94F
:104BA80080E674F7120AC3EBFEEAC39410500D7442
:104BB800FF29C454F02A4480F9124BC680CA120552
:104BC800BBEEF91205C12274F5120AC38909EAFE7F
:104BD800EBFF120627EAF50A75080080188E828F07
:104BE80083E0FBAA08A9091205D98E828F83A3AE98
:104BF80082AF830508E508C3950A40E1850A088065
:104C08000B7B20AA08A9091205D90508E508C39451
:104C18001040EE7F03020B9580200000000000008A
:104C2800000000000000000000000000000000007C
:104C380000000000000000000000EAF8EBF9E8249A
:104C4800FF1AE934FFFBE84970D0020132C082C084
:104C580083C3EA9427EB9400501674FF6C700374B6
:104C6800FF6D600C124C99ECF0A3EDF07900800216
:104C78007902024DBBC082C083C3EA9427EB94003B
:104C88005008124C99124CE280047AFF7BFF024DC7
:104C9800BBEA2AFAEB33FB748C2AF582740C3BF5D9
:104CA800832274F7120AC3E9FEEAFF7C107D0079BB
:104CB800007ABB7B02120633EE900C8BF0EF900269
:104CC800B6F01202F1E9F99002BB70057401F080A8
:104CD80004E4F079127F01020B95E0FAA3E0FB22CD
:104CE80074F6120AC3E9FF7E00701CEA4B6018755F
:104CF80008068E097808120CD6EAFCEBFD7AC27B0E
:104D080002124D82120A719002BBE0640170147E97
:104D180001EF70087402F012033F8007E4F0EFF926
:104D280012026DEEF97F02020B9574F6120AC37E29
:104D380000EA4B603F8A828B83E0F97021A3E0F59B
:104D4800088A828B83A3A3E0FDE5089002C8F0A33C
:104D5800EDF08A828B83A3A3A3E09002CAF09002AD
:104D6800BBE06402700E7E01E9700474038001E404
:104D7800F012026D80ADFAE43FFB12062D74022298
:104D8800C082C083E9F87900EA4B6025E86022EA2E
:104D98002405F582E43BF5837401687005E044C09E
:104DA800800CE0543FF07403687004E0D2E6F079B8
:104DB800018000D083D08202013274F4120AC389C0
:104DC80008900C8BE0F4603D7A0A124EC3603612EC
:104DD8004ED37408F09002B7E08A828B83A3A3A312
:104DE800F0750A06750B00780A120CD67CCB7D028A
:104DF800EA2404124D7E120A71EEFAEFFB900C8B36
:104E0800E0F91206459002BAE06401703D9002DABA
:104E1800E0F8A3E0F9E849601AE0F5838882A3A3E3
:104E2800A3A3E0F8A3E08882F583E58245836003C5
:104E3800120AC1908ECD120CE97A047B009002D937
:104E4800E0F91207357404120A717F04020B957495
:104E5800F4120AC38908900C8BE0F4605B7A0C1298
:104E68004EC36054124ED3E4F0750A06F50B780A67
:104E7800120CD67CC27D02EA2403124D7E120A71FE
:104E88009002C8E0F8A3E0F98E828F83A3A3A3A3BE
:104E9800A3A3A3A3A3E8F0A3E9F09002CAE0C0E0AB
:104EA800EE240BF582E43FF583D0E0F0EEFAEFFB59
:104EB800900C8BE0F9120645024E527B001206391F
:104EC8008A0A8B0BAE0AAF0BEA4F228A828B837455
:104ED800D0F0A3E508F08A828B83A3A32274F01292
:104EE8000AC375E1811204C5E9700890032FE0F93F
:104EF8001204CB12503B6003024FA1900375E0FAF5
:104F0800A3E0FBEA4B6008900374E0F9120669908D
:104F18000333E06401705D125058FA74064AF5D9FB
:104F28007800E8FC741E2C12508540F67800800842
:104F3800E8FC74352C12502FE8C39940F3900354C1
:104F4800E0F9740729F5D974044AF5D978001250A4
:104F58008040FB78008010E8FA74552AF582E43422
:104F680003F583E0F5D908E8C39940EB75E195901E
:104F78000333E4F01250951208FF1250441208EC63
:104F8800908E91780C12094D8A828B83780C1209C5
:104F98006F1250C3741512506D1204057F08020B6E
:104FA8009574F0120AC375E1811204C5E97008907E
:104FB800032FE0F91204CB12503B7068900375E0A0
:104FC800FAA3E0FBEA4B6008900374E0F912066963
:104FD800900333E0640170271250584402F5D978E1
:104FE8000012508040FB78008008E8FA74352A12D5
:104FF800502FE8C39940F375E195900333E4F0121C
:1050080050951208FF1250441208EC908E91780CBB
:1050180012094D8A828B83780C12096F1250C3745F
:105028001412506D024FA1F582E43403F583E0F5C4
:10503800D908227901120429E964012290032CE09D
:10504800F508A3E0F509E4F50AF50B780C790822D0
:1050580075E191A3E0F9740729F5D990031DE0C41F
:10506800333354C0221250F3241AF582E438F583FE
:1050780074DBF0A37403F022E8FA741E2AF582E4C4
:105088003403F583E0F5D908E8C39406221203E750
:10509800E9FC90031BE02402F8A3E03400F9E8FAE5
:1050A800E9FB8882F583EC75F0118485F0088508A2
:1050B8000CE4F50DF50EF50F780C2290031BE0F8C3
:1050C800A3E0C82406F582E438F583E41250F124FD
:1050D8000EF582E438F58374FFF0A3F0A31250F1C3
:1050E8002414F582E438F58322F0A3F090031BE042
:1050F800F8A3E0C822C082C08353BFEF12503B70B0
:105108000C7A1B7B0312041D90032BE4F075E1F16C
:10511800120405D083D082020132C082C083900C71
:1051280040E4F0A3F0900C427442F0A37404F090B1
:1051380004427448F0A37402F090068AF0A37480C5
:10514800F0A374B4F0A37405F0D083D082020132C6
:1051580074F6120AC37A017B001206B1AEA8C2AF78
:10516800EA24FEF8EB34FFF9900C42E8F0A3E9F0EA
:105178001206B7900C447401F0EEA2E792AF7F02DA
:10518800020B9574F2120AC37C007D007E00EA24AB
:1051980002FAE43BFBA2AFE433FFC2AF900C44E059
:1051A8006008EA9411EB9400500A900C42E0F8A3CE
:1051B800E0F98004788C790688828983E0F508A371
:1051C800E0F509548060057E00025268EEA2E050C6
:1051D8007C8C828D83E0F50AA3E0F50B5480F50DF5
:1051E800E50A2508F508E50B3509547FF509E50DAD
:1051F8004509F5098C828D83E508F0A3E509F0548B
:105208007FF509C3E5089AE5099B4054ECF8EDF9E8
:10521800E84970030252D688828983E0FCA3E054EF
:105228007FFDECC39AFCED9BFDC3EC9404ED940068
:10523800405DE82AF582E93BF583ECF0A3EDF0EB5D
:105248004480FB88828983EAF0A3EB804AE509540D
:105258007FFDC3E5089AED9B50B67E01E8FCE9FDA9
:1052680088828983E0F508A3E0547FF509E82508DA
:10527800F8E93509F98882F583E0F508A3E0F5092E
:10528800E508450960030251C078007900803F882D
:10529800828983A3E04480F0900C44E06029900C5C
:1052A80042E0FAA3E0FBE86A7002E96B70198882B1
:1052B8008983E0FAA3E0547FFBE82AFAE93BFB90F4
:1052C8000C42EAF0A3EBF0E82402F8500109EFA23F
:1052D800E092AFE8FAE9FB7F06020B95C082C08333
:1052E800EA24FEF8EB34FFF9A2AFE433FCC2AF883E
:1052F800828983A3E0547FF0900C42E0FAA3E0FB9C
:10530800E89AE99B5008900C42E8F0A3E9F0ECA277
:10531800E092AF025151C082C083E9900CE102557E
:105328000074F7120AC3E99002D9F01205257F012B
:10533800020B9574F4120AC38A088B09EB54806037
:10534800799002D9E0F91206518A0A8B0BAE0AAF9E
:105358000BEA4F605C8A828B83E064917039A3E02A
:1053680024F2602924D0702F750A018A828B83A3C6
:10537800A3E06402700F1254F1600D125406600825
:10538800120AC18003750A00850A0B80061202E51D
:10539800E9F50BE50B7013900CE1E0F4600CEEFA04
:1053A800EFFBE0F9120645E96007EEFAEFFB12069B
:1053B8003FAA08E5096480FB803FEAA2E050171283
:1053C80054F1600C12540660077A007B00120AC17F
:1053D800E5086401801A5402601B9002DA1254F442
:1053E800600A12540660057901120AC1E5086402D0
:1053F800FAAB0980047A007B007F04020B951254F3
:10540800DAA3A31254D1E58245832279000201323E
:1054180074F4120AC37E018A828B83A3A3A3E0F5E6
:1054280008A3E0F50985080AF50B780A120D600152
:105438000008200A20B354070009107B5402206892
:105448005405205F540620B3540B209C540C20971D
:10545800540E20CC54CA541254E0F91202678064E6
:105468008A828B83A3A3A3A3A3E0FAA3E0FB12027F
:105478005B804B8A828B83A3A3A3A3A31254D1A3DB
:10548800AA82AB838882F583E0F9120255802F1235
:1054980054E060301254F1602B1254DA12540B604D
:1054A80023EAFCEBFDAA08AB0980109002DA12543B
:1054B800F460111254DA12540B6009120AC1E9FEA1
:1054C80080027E00EEF9025401E0F8A3E08882F53C
:1054D8008322E0F5838882228A828B83A3A3A3A3F5
:1054E800A3E0F8A31254DAE0229002DCE0F8A3E08B
:1054F800F9E84922EAF0A3EBF0D083D08202013226
:10550800C082C0839002DA80EB74F0120AC374F888
:10551800120A5B8A088B098C0A8D0B908E95780885
:105528001207A6500C75084075099C750A00750B82
:1055380000AC18AD197404120AB112105912567E33
:105548007065851882851983780812096012567E5D
:1055580070030255EF9003F67401F09003F574029E
:10556800F0908E9978081207A6400812567E6003BC
:10557800025674C2AFE51A70030256729003F5E042
:10558800F91211ADE9600302567212059D1205F178
:1055980012567E607D908E9D78081207A6505E9008
:1055A8008EA1120CE9805B740C78081208CD908EDD
:1055B800A5780C1209607808790C120845851882BC
:1055C80085198312098AE8494A4B601B8518828528
:1055D80019837808120796500E85188285198378E2
:1055E8000812096002555D9003F6E4F012567E60D9
:1055F800030255639003F57403F002557B78081293
:105608000CD27408120AA712097E12060974041231
:105618000A7153BEFC9003F5E042BEE5ADA2E0502E
:10562800FA751A0185A808AFB8AE9A53A82053B8DE
:1056380020539A12D2AF1205FD9003F6E064017070
:1056480006A2C74002E4F08508A88FB88E9A900396
:10565800F5E0640370047901800279009003F6E0B4
:10566800FA1212241205F71205A3D2AF7408120A0F
:10567800717F08020B95E5084509450A450B227418
:10568800F4120AC374FC120A5B851882851983EA2E
:10569800F0A3EBF0A3ECF0A3EDF0C2AD7410120A86
:1056A800A77808120960908EA978081208FF851853
:1056B8008285198378081209127402120AA7E0F584
:1056C800977401120AA7E0F596851882851983E078
:1056D800F595C2C7D2AD7404120A717F04020B9506
:1056E8000201327B10120327790022C082C0837422
:1056F800F9120A5B7401120AA7AA82AB8312035734
:105708001257AA79077A091256EB74070257EA74F6
:10571800F7120AC374FF120A5B740F120AA7125712
:1057280065120CDA740F120AA7125765120CDA7494
:105738000E120AA7120CED740F120AA7125765125F
:105748000CDA740F120AA7125765120CDA12035DED
:105758007406120A711257BB7A060257D5E0F5088B
:1057680078082274F7120AC374FF120A5B120363E3
:105778001257BB7A080257D574F7120AC374FF127E
:105788000A5B12036F1257BB7A090257D574F712D6
:105798000AC374FF120A5B1203691257BB7A0A0222
:1057A80057D5E98518828519831257B522F0AC18A8
:1057B800AD1922E98518828519831257B579012216
:1057C800120A717F02020B9574030257EA1257E01E
:1057D800120A717F01020B957B201203277900744E
:1057E8000122120A71D083D0820201321257B57990
:1057F800032274F6120AC374F7120A5B85188285AD
:105808001983E4F0750808F5097808120CD6EAFC43
:10581800EBFD7403120AA7AA82AB8312062D740249
:10582800120A71AC18AD1979097A187B201203276E
:1058380074090257C8C082C08374FD120A5B8518B8
:1058480082851983E4F004120AA77404F074021222
:105858000AA7E41257F4FA7BFC1203390257D0C0A6
:1058680082C08374FD120A5B8518828519837401CE
:10587800F0120AA77404F07402120AA7E41257F48B
:105888007A0180D3C082C08374FD120A5B851882B6
:105898008519837416F07401120AA77404F074024F
:1058A800120AA7E41257F47A1602585F74F7120A1C
:1058B800C374FC120A5BE9900C58F07401120AA731
:1058C8007401F004120AA7E4F0A3F0851882851980
:1058D800837402F014120AB979017A027B03120266
:1058E8001F7402120AB979027A037B0312021F7C21
:1058F800007D0D79197A057B0312021F7C197D0D35
:10590800791F7A047B0312021FAC18AD1979017A4A
:10591800067B0312021F7CA07D007A061259577A73
:10592800071259577A081259577A097B001202430D
:1059380079017A217B8E1205AF7A017B00900C5891
:10594800E0F91206697404120A717F01020B957B53
:10595800001202437CA07D002274F6120AC3EAFEFC
:10596800EBFF54806016900C58E0F9120651EA4B90
:10597800600312063FEEFAEF64808011EAA2E0505D
:105988000F7A387B0D12022BEE6401FAEFFB8004CC
:105998007A007B007F02020B9574F7120AC374E940
:1059A800120A5BE9146015147003025A4314700359
:1059B800025A4B147003025A53025A5BAC18AD19C1
:1059C8007A017B03120225908E107406120AB974AC
:1059D800111209AF900C597430F0A37478F07A5B07
:1059E8007B0C7406120AA7A882A9837E06E824FF06
:1059F80018E934FFF98882F583E0C4540FFC740673
:105A0800120AA7125A69F088828983E0540FFC743D
:105A180006120AA7125A69A3F0EA2402FA50010BE7
:105A28001EEE70C98A828B83E4F079027A597B0C66
:105A38001205AF79037A4B7B8E801E79037A3F7B00
:105A48008E801679037A5F7B8E800E79037A677B66
:105A58008E800679037AD17B8E1205AF74170259AE
:105A68004FE5822CF582E43583F583E08A828B83C7
:105A780022C082C0839003EDE4F053F3FD53FDFD93
:105A880053F5FE53FFFE43F7019003EEF0A3F090A9
:105A980003F0F0D083D08202013274F7120AC3E90E
:105AA8009003F1F09003EEEAF0A3EBF09003F1E03D
:105AB8006033538CFE438C0143AB02D2BD7589FD24
:105AC80053ACF743AC0843AC01439A02758BFE9084
:105AD80003F0E06401701F7A107B009003ECE0F99A
:105AE80012073B801153ABFDC2BD7A107B009003B7
:105AF800ECE0F91206699003F07401F0FF020B95CF
:105B080074F7120AC37E00A28150027E20A2A05020
:105B180007120591E9CE4EFEEEF97F01020B95744E
:105B2800F7120AC37900C200A28140027920A2A01C
